:020000040800F2
:10000000280800204501000815120008D711000833
:100010001112000811080008151B0008000000005C
:10002000000000000000000000000000B9130008FC
:100030002D0A000800000000A1120008C9140008E1
:100040005F0100085F0100085F0100085F01000810
:100050005F0100085F0100085F0100085F01000800
:100060005F0100085F0100085F0100085F010008F0
:100070005F0100085F0100085F0100085F010008E0
:100080005F0100085F0100085F0100085F010008D0
:100090005F0100085F0100085F0100085F010008C0
:1000A0005F0100085F0100085F0100085F010008B0
:1000B0005F0100085F0100085F0100085F010008A0
:1000C0005F0100085F0100085F0100085F01000890
:1000D0005F010008691500085D160008A1170008F7
:1000E0005F0100085F0100085F0100085F01000870
:1000F0005F0100085F0100085F0100085F01000860
:100100005F0100085F0100085F0100085F0100084F
:100110005F0100085F0100085F0100085F0100083F
:100120005F0100085F0100085F0100085F0100082F
:10013000DFF80CD000F0CAFA004800474D2500084F
:10014000280800200648804706480047FEE7FEE7EB
:10015000FEE7FEE7FEE7FEE7FEE7FEE7FEE7FEE777
:100160000915000831010008D2B201E000F8012BA6
:10017000491EFBD270470022F6E710B513460A4627
:1001800004461946FFF7F0FF204610BD30B505467E
:100190002A460B4612F8010B13F8014B08B1A04296
:1001A000F8D01CB1002802D06D1CF1E7284630BD04
:1001B00030B480EA010202F0004530F0004221F044
:1001C000004015D0A0B1C0F3C753C2F3C754C2F367
:1001D0001601C0F31600E41A41F4000140F40002D5
:1001E0007D34914201D3641C00E04900002C02DA06
:1001F00030BC002070474FF400000023914201D32F
:10020000891A034340084FEA4101F7D151B19142A5
:1002100002D14FF0004105E002D24FF0010101E0B0
:100220006FF0010103EBC450284430BC00F063B808
:10023000C10F80EAE0700844CA079623002100F04D
:1002400063B800F0004230F000400AD0C10D01F563
:100250006071C0F3160042EA0151C2084007114321
:10026000704700200146704730B50B46014600201C
:100270002022012409E021FA02F59D4205D303FA68
:1002800002F5491B04FA02F52844151EA2F10102E9
:10029000F1DC30BD2DE9F05F0546002092469B461B
:1002A00088460646814640241BE02846414647468C
:1002B000224600F02CFA53465A46C01A914110D3F8
:1002C00011461846224600F013FA2D1A67EB010872
:1002D0004F4622460120002100F00AFA17EB0009E0
:1002E0004E41201EA4F10104DFDC484631462A4677
:1002F0004346BDE8F09F0029A8BF7047401C490055
:1003000008BF20F00100704710B4B0FA80FC00FA7A
:100310000CF050EA010404BF10BC704749B1CCF1A5
:10032000200421FA04F411FA0CF118BF0121214331
:100330000843A3EB0C01CB1D0106000A002BBEBF36
:10034000002010BC704700EBC35010440029A4BF2C
:1003500010BC7047401C490008BF20F0010010BCD1
:1003600070472DE9FE4F804681EA0300C00F0C461E
:10037000009021F0004123F00045B8EB0200A941B4
:1003800005D24046214690461C460B46024623F0C5
:100390000040104304D14046214603B0BDE8F08F31
:1003A000270DC7F30A00C3F30A510290401A0190C7
:1003B000402866DAC3F3130040F4801B009892468D
:1003C00020B10023D2EB030A63EB0B0B01985946D3
:1003D000C0F14002504600F08BF906460D465046EB
:1003E0005946019A00F0A3F910EB0800614100247E
:1003F00087EA115284EAE7731A433BD0009A3AB372
:10040000019A012A4FEA075210DC001B61EB02013E
:100410004FF0004202EA0752CDE90042001C41F5CC
:10042000801132462B4600F0A1F9B6E7001B61EBC4
:100430000201001C41F5801300185B412018A2F551
:10044000001747EB030140EAD570B6196D4111E082
:100450006D084FEA360645EAC0754FEA0752001BA1
:1004600061EB0201001C41F5801149084FEA3000A0
:100470000019514132462B4603B0BDE8F04F00F061
:1004800068B90098012240000023D0EB020263EB20
:10049000E073009821464FEAE074B8EB000061EB8E
:1004A0000401E9E783F000435BE781F0004158E78E
:1004B0002DE9FE4F81EA030404F0004421F00041DD
:1004C00000944FF0000B23F0004350EA010402D0E7
:1004D00052EA030404D10020014603B0BDE8F08FC6
:1004E000C3F30A54C1F30A552C44A4F2F334019423
:1004F000A0FB0254C1F3130141F48011C3F31303B1
:1005000043F4801301FB024400FB034E840A970A64
:1005100044EA815447EA8357A4FB076802958D0A91
:1005200005FB07854FEA932C04FB0C542705029D1D
:100530004FEA065847EA1637B5EB08056EEB070C8D
:10054000870E920E47EA811742EA8312A7FB020147
:10055000B6EB0B0164EB00042B0D43EA0C335E1881
:1005600044EB1C50DA465146E7FB0201C5F3130485
:100570004FEA0B3343EA14534FEA0432019C43EA37
:100580000603A4F10C040294009CCDE900B400F031
:10059000EDF8A2E72DE9F04D81EA030404F0004BE9
:1005A00021F0004514464FF0000A23F0004150EAC4
:1005B000050220D054EA01021DD0C5F30A570246B5
:1005C000C5F31303C1F31300C1F30A5640F48015B9
:1005D00043F48013A7EB0608101BD64608F2FD383B
:1005E00073EB050002D308F1010801E092185B41AA
:1005F000B8F1000F03DA00200146BDE8F08D0020BD
:100600004FF48011064684460EE0171B73EB050776
:1006100005D3121B63EB050306434CEA010C4908A2
:100620004FEA300092185B4150EA0107EDD152EADF
:10063000030012D082EA040083EA0501084303D1D3
:1006400000224FF0004308E0101BAB4102D2012210
:10065000002302E06FF0010253101AEB06004CEB8E
:10066000085110EB0A0041EB0B01BDE8F04D00F022
:1006700070B8C1F30A52C1F3130140F2FF3341F4E1
:1006800080119A4202DA00200146704740F233435B
:100690009A42A2F2334202DC524200F038B800F033
:1006A00027B8000030B5002904DB4FF00044404279
:1006B00064EB0101002B04DB4FF00044524264EB79
:1006C0000303994208BF904230BD0000064C074D1D
:1006D00006E0E06840F0010394E807009847103412
:1006E000AC42F6D3FFF728FDC4250008E425000836
:1006F000202A04DB203A00FA02F1002070479140E2
:10070000C2F1200320FA03F3194390407047202AD6
:1007100004DB203A21FA02F00021704721FA02F3AB
:10072000D040C2F120029140084319467047202A68
:1007300006DBCB17203A41FA02F043EAE07306E009
:1007400041FA02F3D040C2F1200291400843194619
:10075000704710B5002B08DA401C41F100019218D7
:100760005B411A4301D120F0010010BD2DE9F04D8D
:1007700092469B4611B1B1FA81F202E0B0FA80F2E2
:1007800020329046FFF7B4FF04460F4640EA0A00C5
:1007900041EA0B0153465A46084303D120463946E5
:1007A000BDE8F08D114653EA010015D0C8F14002B2
:1007B0005046FFF7ACFF05460E46504659464246A6
:1007C000FFF796FF084301D0012000E00020054319
:1007D00046EAE0762C4337430A984FEA4453A0EBAD
:1007E00008004FEAD4240A304FF0000244EA47548C
:1007F0004FEAD72502D500200146D1E7010510199F
:100800006941DDE9084500196941BDE8F04DA0E7FF
:1008100000BFFEE710B500241548006820F47020E2
:10082000134908600846006840F40020086004E0AE
:10083000601CC4B2012001F01FFE0E48006808B120
:10084000642CF5DB642C01DB012010BD002404E0E6
:10085000601CC4B2012001F00FFE0648006808B910
:10086000642CF5DB642C01DB0120EEE70020ECE7D3
:10087000000801401001214208B50121042000F0C8
:1008800021FD1020ADF800008DF8030003208DF845
:1008900002006946054800F011FC1021034800F0F1
:1008A00098FC00F0A1F8FFF7B5FF08BD0008014073
:1008B00010B5002404E0601CC4B2012001F0DCFD8E
:1008C0000D48006808B1642CF5DB002404E0601CCE
:1008D000C4B2012001F0D0FD0748006808B9642CBB
:1008E000F5DB282001F0C8FD0348006808B10120AD
:1008F00010BD0020FCE700001001214270B500246B
:10090000002506E06006040EFFF7D2FF0443681CD2
:10091000C5B2082DF6DB204670BD00002DE9FC476E
:1009200004460D464FF0000800202060286000F0CB
:100930005BF8FFF76FFF00284FD1002605E0FFF7B7
:10094000DDFF0DF80600701CC6B2052EF7DB9DF822
:1009500000009DF8011008449DF8021008449DF81D
:1009600003100844C7B29DF80400B8421AD19DF89C
:1009700001109DF8002001EB0220FFF759FC814691
:100980001849FFF715FC20609DF803109DF8022020
:1009900001EB0220FFF74CFC81461249FFF708FCEF
:1009A00028601DE09DF801109DF8002001EB022059
:1009B000FFF73EFC81460B49FFF7FAFB20609DF8EC
:1009C00003109DF8022001EB0220FFF731FC814665
:1009D0000449FFF7EDFB286002E00120BDE8FC8739
:1009E0000020FBE70000204110B50D48006820F40E
:1009F00070200B4908600846006840F440300860E9
:100A00000020084908604FF01E0001F00FFD012092
:100A10000549C1F890011E2001F02EFD10BD000017
:100A2000000801409001214200002142704700006F
:100A300010B5002440210C4800F0CBFB4FF47A7035
:100A400001F0F4FC0CE04FF4FA73002207A108A0B7
:100A500000F0B2FA00B110BD00F064F9601CC4B23D
:100A60000A2CF0DB00BFF6E7001801404F4B0000F6
:100A70004154000010B586B004460CB1012000E0DE
:100A80000020024606A101A801F056F84FF4FA73BF
:100A9000002207A101A800F08FFA06B010BD0000E7
:100AA00041542B4349504D55583D256400000000EA
:100AB0004F4B000010B54FF47A7001F0B7FC04A161
:100AC000044800F0A4FF4FF4FA7001F0AFFC10BD31
:100AD0002B2B2B000044004010B54FF4FA7300227A
:100AE0000DA10EA000F068FAA0B110A11248FFF706
:100AF0004DFB08B1022010BD10A10F48FFF746FBC7
:100B000008B10320F7E710A10B48FFF73FFB08B13E
:100B10000420F0E70020EEE74F4B000041542B4348
:100B2000495053544154555300000000535441540C
:100B300055533A320D0A000020000020535441540E
:100B400055533A330D0A00005354415455533A3427
:100B50000D0A000038B5044601214FF4A07000F0E2
:100B6000B1FB4020ADF8000010208DF803000320F9
:100B70008DF8020069460B4800F0A0FA8020ADF81D
:100B800000006946084800F099FA204600F0B6FDDA
:100B90004021044800F01DFB8021034800F017FBB2
:100BA00038BD0000001801400020014030B59FB062
:100BB00004460D462B46224606A101A800F0BCFFC4
:100BC00041F28833002208A101A800F0F5F91FB016
:100BD00030BD000041542B43574A41503D222573FC
:100BE000222C2225732200004F4B0000F0B5B9B033
:100BF00006460F4614461D46642120A8FFF7BBFA9F
:100C000016B1012E10D107E03B4614A214A120A872
:100C1000009400F091FF08E03B4615A210A120A827
:100C2000009400F089FF00E000BF00BF052D06DA48
:100C300020AB2A460FA102A800F07EFF04E020AA04
:100C400011A102A800F078FF4FF47A6312A216A156
:100C500002A800F0B1F939B0F0BD000054435000D3
:100C6000222573222C222573222C257300000000DC
:100C70005544500041542B43495053544152543D24
:100C800025642C257300000041542B4349505354D4
:100C90004152543D25730000414C52454159204377
:100CA0004F4E4E45435400004F4B000010B50446D4
:100CB00024B1012C0AD0022C18D10FE040F6C41345
:100CC0000BA20EA10EA000F077F910BD40F6C413E0
:100CD00007A20AA10DA000F06FF9F6E740F6C413D1
:100CE00003A206A10CA000F067F9EEE70020ECE7F4
:100CF0006E6F206368616E67650000004F4B0000F7
:100D000041542B43574D4F44453D310041542B43F3
:100D1000574D4F44453D320041542B43574D4F44AE
:100D2000453D330010B54021054800F050FA4FF41E
:100D3000FA7001F07BFB4021014800F04AFA10BD37
:100D4000001801409EB0642103A8FFF714FA3FA0E9
:100D500000F0E2FE8021464800F03BFAFFF768FE13
:100D60000020FFF7A3FF00BF42A146A0FFF71EFF30
:100D70000028F9D00020FFF77DFE00BF052346A222
:100D800047A10020FFF732FF0028F7D000BF00F096
:100D90006FF90028FBD046A000F0BEFE54E04FF0F3
:100DA0003C0905E04FF47A7001F040FBA9F101091C
:100DB000B9F1000FF6D11CA91DA8FFF7AFFD1D98D2
:100DC000FFF73FFA05460E461C98FFF73AFA07462A
:100DD0003A460B463CA103A8CDE9005600F0ACFE14
:100DE0000523002203A9012000F096F84FF47A7041
:100DF00001F01CFB37480078002824D0FFF75AFE8A
:100E000000BFFFF769FE0446002CFAD0042C15D170
:100E100031A000F081FE00BF16A11AA0FFF7C6FEA8
:100E20000028F9D000BF05231BA21DA10020FFF759
:100E3000DDFE0028F7D031A000F06EFE00BF00F00C
:100E400017F90028FBD000BFA9E700000D0AD5FD67
:100E5000D4DAC5E4D6C345535038323636C7EBC46E
:100E6000CDD0C4B5C8B4FD2E2E2E0D0A0000000052
:100E700000200140637A6D2E3137373231383834F3
:100E80003235390054502D4C494E4B5F3430345F6D
:100E90006D61696E000000003830383000000000DD
:100EA0003139322E3136382E312E313035000000B6
:100EB0000D0AC5E4D6C345535038323636204F4B61
:100EC000A3A10D0A00000000252E31663B252E311E
:100ED000660D0A00180000200D0AC7EBC9D4B5C87A
:100EE000A3ACD5FDD4DAD6D8C1ACC8C8B5E3BACD69
:100EF000B7FECEF1C6F72E2E2E0D0A000D0AD6D85B
:100F0000C1ACC8C8B5E3BACDB7FECEF1C6F7B3C918
:100F1000B9A60D0A000000002DE9F04186B0074691
:100F20000C4615461E464FF000083FB1224614A15C
:100F3000144800F06CFD4FF001081CE0052E06DAA5
:100F4000AB1C324610A101A800F0F6FD04E0AA1C7B
:100F500012A101A800F0F0FD4FF47A73002213A152
:100F600001A800F029F84FF47A73002210A120465E
:100F700000F022F88046404606B0BDE8F08100004F
:100F8000257300000044004041542B434950534511
:100F90004E443D25642C25640000000041542B4341
:100FA000495053454E443D25640000003E2000005A
:100FB00053454E44204F4B002DE9F04106460C4668
:100FC00015461F462548B0F80004C10BC903234845
:100FD000A0F80014324622A1234800F018FD1CB9E5
:100FE00015B90120BDE8F081B8B201F01FFA002167
:100FF0001A48B0F80004C0F30E00184A1154114604
:101000001AA000F089FDB4B1ADB121461348FFF735
:10101000BDF808B1012000E0002040B929460F4882
:10102000FFF7B4F808B1012000E0002008B101206A
:10103000D8E70020D6E744B121460848FFF7A6F8D4
:1010400008B10120CEE70020CCE729460348FFF78E
:101050009DF808B10120C5E70020C3E7200000206B
:1010600025730D0A000000000044004025730000B5
:1010700010B54FF4FA73002207A108A0FFF79CFFF8
:1010800008B9002010BD4FF4FA7308A202A108A00D
:10109000FFF792FFF6E700004F4B000041542B434F
:1010A00049504D4F44453D31000000003E000000D6
:1010B00041542B43495053454E4400002DE9F04123
:1010C000024600250026002000230024002791F876
:1010D00003C00CF00F0591F803C01CF0100F03D0F3
:1010E00091F802C04CEA050591F800C0BCF1000F70
:1010F00031D0146800202BE04FF0010C0CFA00F303
:10110000B1F800C00CEA03069E4220D183004FF0E4
:101110000F0C0CFA03F7BC4305FA03FC4CEA040479
:1011200091F803C0BCF1280F06D14FF0010C0CFA66
:1011300000FCC2F814C00AE091F803C0BCF1480FEB
:1011400005D14FF0010C0CFA00FCC2F810C0401C95
:101150000828D1D31460B1F800C0BCF1FF0F34DD12
:10116000546800202EE000F1080C4FF0010808FA46
:101170000CF3B1F800C00CEA03069E4221D18300B3
:101180004FF00F0C0CFA03F7BC4305FA03FC4CEAD2
:10119000040491F803C0BCF1280F05D100F1080C3C
:1011A00008FA0CF8C2F8148091F803C0BCF1480F9B
:1011B00007D100F1080C4FF0010808FA0CF8C2F84A
:1011C0001080401C0828CED35460BDE8F0814161F6
:1011D00070470161704700BFFEE7000008B50121BC
:1011E000102000F06FF8FF20ADF8000010208DF8FF
:1011F000030003208DF8020069460448FFF75EFFF4
:10120000FF210248FFF7E5FF08BD00000010014084
:1012100000BFFEE77047000070B5002100230F22D9
:10122000C4780CB3164C246804F4E064C4F5E0649C
:10123000210AC1F10403CA40447804FA03F1847816
:101240001440214309010F4C0678A155047804F09D
:101250001F050124AC4005786D114FF0E02606EB28
:101260008505C5F8004109E0047804F01F05012454
:10127000AC40054D0678761145F8264070BD00005B
:101280000CED00E000E400E080E100E002490143F1
:10129000024A1160704700000000FA050CED00E002
:1012A0007047000029B1064AD2690243044BDA6153
:1012B00004E0034AD2698243014BDA6170470000BF
:1012C0000010024029B1064A92690243044B9A6118
:1012D00004E0034A92698243014B9A61704700001F
:1012E0000010024030B500210022002400232D4DC3
:1012F0006D6805F00C0121B1042905D0082923D11E
:1013000005E0294D056022E0274D05601FE0254DD1
:101310006D6805F47012234D6D6805F48034022564
:1013200005EB92421CB9214D554305600BE01D4D64
:101330006D6815F4003F03D01C4D5543056002E075
:10134000194D5543056002E0174D056000BF00BF11
:10135000144D6D6805F0F0010909154D6B5C0568C9
:10136000DD4045600F4D6D6805F4E061090A104DE0
:101370006B5C4568DD4085600A4D6D6805F4605121
:10138000C90A0B4D6B5C4568DD40C560054D6D6855
:1013900005F44041890B074D6B5CC568B5FBF3F55F
:1013A000056130BD0010024000127A0000093D00C6
:1013B0000000002010000020704710B500F002F877
:1013C00010BD00000CB5002001900090324800686C
:1013D00040F480303049086000BF2F48006800F4B6
:1013E000003000900198401C0190009818B90198B5
:1013F000B0F5A06FF1D12848006810F4003F02D08A
:101400000120009001E0002000900098012842D1C6
:101410002248006840F01000204908600846006833
:1014200020F0030008600846006840F002000860F1
:1014300019484068184948600846406848600846AE
:10144000406840F4806048600846406820F47C10A2
:1014500048600846406840F4E81048600846006864
:1014600040F08070086000BF0B48006810F0007FFB
:10147000FAD00948406820F0030007494860084650
:10148000406840F00200486000BF0348406800F038
:101490000C000828F9D10CBD0010024000200240C9
:1014A000042808D14FF0E021096941F004014FF010
:1014B000E022116107E04FF0E021096921F0040109
:1014C0004FF0E022116170477047000010B50446EC
:1014D0006FF00400FFF7E4FFE11704EB5171C1F373
:1014E000C701074A11701046007800EB4001C1EBBC
:1014F000C0104FF6FF7101EAC0000249088010BD1C
:10150000140000201600002010B51348006840F0B9
:1015100001001149086008464068104908400E491A
:101520004860084600680E4908400B4908600846B4
:10153000006820F4802008600846406820F4FE001F
:1015400048604FF41F008860FFF737FF4FF00060DE
:101550000449086010BD0000001002400000FFF8C0
:10156000FFFFF6FE08ED00E010B540F225510C48F3
:1015700000F088F970B10A4800F040FAC4B2214680
:10158000074800F040FA00BF4021054800F06DF91F
:101590000128F9D14021024800F052F910BD0000A5
:1015A0000038014010B586B0044601210420FFF741
:1015B00089FE01218803FFF785FE01210846FFF718
:1015C00081FE4FF40070ADF8140003208DF8160072
:1015D00018208DF8170005A91E48FFF76FFD4FF47E
:1015E0008060ADF8140004208DF8170005A9194893
:1015F000FFF764FD01940020ADF80800ADF80A0083
:10160000ADF80C00ADF810000C20ADF80E0001A9EB
:10161000114800F087F901210F4800F01AF9402124
:101620000D4800F00DF9012240F225510A4800F062
:1016300053F925208DF8000003208DF801008DF866
:10164000020001208DF803006846FFF7E5FD06B0B3
:1016500010BD0000000801400038014010B540F204
:101660002551204800F00EF9D8B11E4800F0C6F907
:10167000C4B21D48B0F80004C0F30E0040F2FF31C0
:1016800088420EDA1849B1F80014C1F30E00411C6B
:10169000154AB2F8002461F30E021349A1F80024A0
:1016A0000C5440F224410F4800F0ECF8012817D107
:1016B0000D48B0F8000420F4004000F500400A494D
:1016C000A1F80004074800F099F9C4B207A1064840
:1016D000FEF75CFD08B1012000E00020064908701B
:1016E00010BD00000044004020000020434C4F5338
:1016F00045440D0A000000001800002010B586B017
:10170000044601214804FFF7CDFD01210420FFF725
:10171000D9FD0420ADF8140003208DF81600182020
:101720008DF8170005A91C48FFF7C8FC0820ADF884
:10173000140004208DF8170005A91748FFF7BEFC18
:1017400026208DF8000000208DF801008DF80200A1
:1017500001208DF803006846FFF75EFD019400202C
:10176000ADF80800ADF80A00ADF80C00ADF81000B7
:101770000C20ADF80E0001A9084800F0D3F80122B2
:1017800040F22551054800F0A7F80121034800F078
:1017900060F806B010BD00000008014000440040A1
:1017A00010B540F22551204800F06CF8D8B11E4821
:1017B00000F024F9C4B21D48B0F80004C0F30E00D4
:1017C00040F2FF3188420EDA1849B1F80014C1F333
:1017D0000E00411C154AB2F8002461F30E021349B1
:1017E000A1F800240C5440F224410F4800F04AF8BC
:1017F000012817D10D48B0F8000420F4004000F58E
:1018000000400A49A1F80004074800F0F7F8C4B204
:1018100007A10648FEF7BAFC08B1012000E000204D
:101820000649087010BD000000480040200000205C
:10183000434C4F5345440D0A00000000180000209F
:1018400001F40072B2F5007F00D100BFCA430280EC
:10185000704721B1828942F40052828104E082897A
:101860004DF6FF731A408281704702460020B1F5A1
:10187000007F00D100BF13880B4201D0012000E09F
:101880000020704770B50246002400230025002088
:10189000A1F510666A3E00D100BFC1F3421501F008
:1018A0001F03012606FA03F3012D02D19689334066
:1018B00006E0022D02D1168A334001E0968A3340B9
:1018C0000C12012606FA04F41688344013B10CB148
:1018D000012000E0002070BDF0B503460024002682
:1018E00000250020A1F510676A3F00D100BF18460F
:1018F000C1F3421401F01F06012707FA06F5012C77
:1019000001D10C3004E0022C01D1103000E0143081
:101910001AB107682F43076002E00768AF4307600A
:10192000F0BD00002DE9F04786B005460E460024C4
:10193000A24600BFA1460027B08900B100BF2F46D4
:101940002C8A4CF6FF700440F08804432C82AC894A
:101950004EF6F3100440B08831890843718908437A
:101960000443AC81AC8A4FF6FF400440B089044385
:10197000AC8201A8FFF7B6FC1F48874202D1DDF810
:1019800010A001E0DDF80CA0A88910F4004F08D0E9
:101990000AEBCA0000EB0A1031684900B0FBF1F80D
:1019A00007E00AEBCA0000EB0A1031688900B0FBBF
:1019B000F1F86420B8FBF0F004012009642101FB78
:1019C0001089A88910F4004F08D0322000EBC9001C
:1019D000B0FBF1F000F00700044308E0322000EB18
:1019E00009106421B0FBF1F000F00F0004432C81DA
:1019F00006B0BDE8F0870000003801400146888845
:101A0000C0F308007047C1F30802828070470FB42A
:101A100070B586B006460CA8019073E00B9800786C
:101A20005C281CD10B98401C0B9000786E2809D0C4
:101A300072280FD10D213046FFF7E5FF0B98401CAF
:101A40000B900BE00A213046FFF7DDFF0B98401C9E
:101A50000B9003E00B98401C0B9000BF4BE00B98E1
:101A60000078252840D10B98401C0B900078642802
:101A700018D0732833D1019810C801900BE0217859
:101A80003046FFF7C0FF00BF80213046FFF7EDFE74
:101A90000028F9D0641C20780028F0D10B98401C55
:101AA0000B9020E0019820C801900A2202A9284644
:101AB00000F01AFD02AC0BE021783046FFF7A3FFDF
:101AC00000BF80213046FFF7D0FE0028F9D0641C0B
:101AD00020780028F0D10B98401C0B9003E00B9865
:101AE000401C0B9000BF06E00B9810F8011B0B90F8
:101AF0003046FFF788FF00BF80213046FFF7B5FE74
:101B00000028F9D00B980078002887D106B070BC67
:101B10005DF814FB00BFFEE70FB4054B10B503A939
:101B2000044A029800F0DAF810BC5DF814FB0000DB
:101B3000C52400081C0000200FB4084B10B504A9F0
:101B400002AA039800F0CAF8044602A9002000F097
:101B500068FC204610BC5DF814FB0000232400083C
:101B600002E008C8121F08C1002AFAD17047704766
:101B7000002001E001C1121F002AFBD170470000C4
:101B80002DE9FF5FDDE90220010DDDF838B00243E9
:101B900010D10F9801244CA2012808D000210098F0
:101BA0000F9BC0E90021C0E90243BDE8FF9F6FEA37
:101BB0000B01F4E7A1F2FF3144F6105041430D143C
:101BC0000F9801280ED0A5EB0B00401C4FF000042D
:101BD0003E4EDFF8FC90B0F1000AA04605DACAF1EB
:101BE000000717E0CBF10000F0E7074612E0F80726
:101BF00007D02246334640464946FEF759FC804608
:101C000089462246334610461946FEF751FC0446E3
:101C10000E467F10002FEAD1DDE90201BAF1000F74
:101C200042464B4602DAFEF743FC01E0FEF7B2FC07
:101C300004460E460022274BFEF734FD03D84FF032
:101C4000FF30014607E00022234B20463146FEF7D5
:101C500088FBFEF70EFD102409E0002C0ADB0A22A7
:101C60000023FEF717FB019B30321A55641E50EA21
:101C70000102F2D1641C019AC4F1110314440F9AB9
:101C8000012A09D00122084301D15B450FDD4FF045
:101C9000000205F101050DE0084303D1A3EB0B059C
:101CA0006D1E09E000204FF0110B0F9088E701DA5C
:101CB00000226D1E002A83D000980F99C0E90231DE
:101CC000C0E9004571E7000030000000000024403A
:101CD0000000F03F0000F0430000E03F2DE9FF4F1F
:101CE00095B09B4689460646002512E2252878D104
:101CF0000024761CF94A2746012105943378203BBD
:101D000001FA03F0104202D00443761CF6E7307863
:101D10002A2811D06FF02F033078A0F13002092A61
:101D200016D8059A44F0020402EB820203EB420249
:101D30001044761C0590EFE759F8042B0592002A11
:101D400003DA504244F40054059044F00204761C37
:101D500030782E2816D116F8010F44F004042A28F2
:101D60000DD06FF02F023078A0F13003092B09D885
:101D700007EB870302EB4303C718761CF3E759F818
:101D8000047B761C30786C280FD006DC4C2817D0EA
:101D900068280DD06A2814D104E0742810D07A285D
:101DA0000FD10DE044F400140AE044F4801401E083
:101DB00044F440147278824202D1761C04F58014F7
:101DC000761C307866280BD013DC582877D009DCD5
:101DD000002875D04528F6D04628F4D047281AD1D7
:101DE0009FE118E0632835D0642879D0652812D1A6
:101DF00097E1702873D008DC6728F1D069286FD08C
:101E00006E280DD06F2806D1B5E073282CD0752828
:101E100075D0782874D05A46179990476D1C76E192
:101E2000C4F30250022809D003280DD0D9F80010BD
:101E300004280DD00D6009F1040968E1D9F80010FB
:101E4000EA17C1E90052F6E7D9F800100D80F2E771
:101E50000D70F0E719F8041B8DF8001000208DF8C4
:101E60000100EA46012003E059F804AB4FF0FF30CF
:101E700061074FF0000102D40DE008F1010188462E
:101E8000B9420FDA8045F8DB1AF808100029F4D1BE
:101E900008E008F1010188468142FADB1AF80810CF
:101EA0000029F6D105985B46A0EB08072146384685
:101EB000179A00F09EFA284400EB080507E04DE071
:101EC0002BE10DE01AF8010B5A4617999047B8F12B
:101ED0000108F7D25B4621463846179A14E142E0E2
:101EE0000A220092C4F302524FF0000A022A08D0DC
:101EF00059F804CB032A4FEAEC710AD00DE029E02F
:101F00002AE009F1070121F00702F2E802C1914637
:101F100009E00FFA8CFC4FEAEC71042A03D14FFA66
:101F20008CFC4FEAEC71002907DA0A460021DCF14B
:101F3000000C61EB02012D2202E0220504D52B22C8
:101F40008DF80420012203E0E20701D02022F7E708
:101F5000904653E00A2102E010220DE010214FF0DC
:101F6000000A00910BE010224FF0000A44F0040434
:101F70000827009203E008224FF0000A0092C4F301
:101F80000252022A05D059F804CB0021032A08D0B6
:101F900009E009F1070121F00702F2E802C19146C8
:101FA00005E01FFA8CFC042A01D10CF0FF0C4FF065
:101FB0000008220722D5702827D0009B83F0100349
:101FC00053EA0A0309D15CEA010206D030228DF8F7
:101FD00004208DF8050002229046009B83F0080340
:101FE00053EA0A030AD15CEA010201D1620705D56E
:101FF00030228DF804204FF001087F1E582809D0A8
:1020000037A003900EA8029013E040228DF8042020
:102010000122E1E737A0F4E753466046009AFEF755
:1020200039F984460398825C0298A0F1010002907D
:1020300002705CEA0100EFD1029806A9A1EB000052
:1020400000F1200A600702D524F4803400E0012763
:10205000574502DDA7EB0A0000E0002000EB0A0173
:10206000009005984144A0EB01000590E00306D4E0
:102070005B462146179A059800F0BBF905440027F6
:1020800006E001A85A46C05D179990476D1C7F1C59
:102090004745F6DBE0030CD55B462146179A0598C9
:1020A00000F0A7F9054404E030205A4617999047FC
:1020B0006D1C0099481E00900029F5DC08E002988C
:1020C00002995A460078491C0291179990476D1C55
:1020D000BAF10001AAF1010AF1DC6BE10928010063
:1020E000303132333435363738396162636465668E
:1020F0000000000030313233343536373839414250
:10210000434445460000000000F060F9054406F134
:102110000106307800287FF4E9AD19B02846BDE803
:10212000F08F620700D4062709F1070222F0070C9E
:10213000FCE80223E14603F000485FEA080C02D005
:102140000FF27C2C0DE05FEA045C02D50FF2742CD8
:1021500007E05FEAC47C02D00FF26C2C01E0AFF222
:10216000700C4FF0FF3823F00043CDF850C06528C5
:102170000CD006DC452809D046281DD047283ED182
:102180003EE0662818D0672839D139E00021112FA8
:1021900001DB112000E0781CCDE9000106A90EA8A2
:1021A000FFF7EEFCDDE90F010E9A0391002100928A
:1021B00007F1010A04914EE04FF000400097CDE98D
:1021C000011006A90EA8FFF7DBFCDDE90F02039260
:1021D0000E9B11990022DDF80CA00093049219B90E
:1021E00007F1010100EB010AB7EB0A0004D4C0F1CA
:1021F000FF3007F1010A0490AAEB0700019046E0C6
:10220000012F00DA01270021112F01DD112000E04C
:102210003846CDE9000106A90EA8FFF7B1FCDDE9BB
:102220000F010E9A0391002104910092BA462107F2
:102230000CD40399514500DA8A46BAF1010F05DD45
:10224000009AAAF10101515C302908D0B84202DAA3
:1022500010F1040F06DA0121CDE9011017E0AAF10F
:102260000101E9E7002805DC049901440491AAEB87
:10227000000102E0411C514500DD8A460499A0EBB3
:10228000010000F1010001904FF000400290200792
:1022900004D40198504501DBCDF8048000208DF86E
:1022A0004F0002980DF14F07B0F1004F25D02B20C1
:1022B0000E9002984FF0020800280CDA404202907B
:1022C0002D200E9007E00A210298FDF7CDFF303156
:1022D000029007F8011DB8F10001A8F10108F2DC35
:1022E00002980028EFD1791E0E980870307800F01F
:1022F000200040F0450007F8020D12A8A0EB0700EF
:1023000000F107081498007800B1012000EB0A01E1
:10231000019801EBE07105984144A0EB0100A0F1A8
:1023200001000590E00306D45B462146179A059804
:1023300000F05FF805441498007820B15A461799C8
:10234000904705F10105E00323D55B462146179A26
:10235000059800F04EF805441BE00498002807DBC0
:10236000DDE90301884203DD0098405C179901E034
:10237000179930205A46904704986D1C401C0490D1
:102380000198401E019004D12E205A46179990477B
:102390006D1CBAF10001AAF1010ADEDC05E017F8B4
:1023A000010B5A46179990476D1CB8F10001A8F12E
:1023B0000108F4DC5B462146179A0598A4E6000064
:1023C0002D0000002B000000200000002DE9F0414E
:1023D000044600251E461746880405D406E0394603
:1023E0002020B04705F10105641EF8D52846BDE858
:1023F000F0812DE9F041044600251E469046C803B1
:1024000001D5302700E02027880405D506E04146A5
:102410003846B04705F10105641EF8D52846BDE8E9
:10242000F0810A68531C0B60107070470146114A16
:1024300012884A434FF0E0235A6100229A611A46FB
:10244000126942F001021A6100BF4FF0E0221069E8
:1024500010F0010F02D010F4803FF6D04FF0E022D0
:10246000126922F001024FF0E0231A6100229A6102
:1024700070470000160000200146114A12784A43B6
:102480004FF0E0235A6100229A611A46126942F025
:1024900001021A6100BF4FF0E022106910F0010F35
:1024A00002D010F4803FF6D04FF0E022126922F003
:1024B00001024FF0E0231A6100229A617047000088
:1024C0001400002070B504460D46E1B20548FFF740
:1024D0009AFA00BF80210348FFF7C7F90028F9D016
:1024E000204670BD00380140F0B503460D46164643
:1024F000002729460A2E03D0002008702846F0BD88
:1025000033B9302001F8010B002008702846F6E7A7
:10251000002B03DA2D2001F8010B5B4242F210720E
:102520000DE093FBF2F404B937B104F1300001F887
:10253000010B04FB123301270A2092FBF0F2002A60
:10254000EFDC002008702846D9E700004820FEF79D
:10255000BDFF4FF4A060FEF799FEFEF73FFE4FF47B
:10256000E130FFF71FF8FEF787F90FA0FFF7D4FA65
:102570004FF4E130FEF7EEFAFEF7E4FB13E0601CE7
:10258000C4B2142094FBF0F100FB114038B90C48A0
:10259000006808B9012000E00020094908604FF0F8
:1025A0000A00FFF743FFEAE75354412054435043E6
:1025B0006C656E74CDB8B4ABB2E2CAD40D0A00003B
:1025C00080012242E42500080000002020000000D5
:1025D000601B0008042600082000002008080000F6
:1025E000701B000800000000010203040102030444
:1025F00006070809020406080000000000000000A9
:0426000000000000D6
:0400000508000131BD
:00000001FF
